:020000040800F2
:10000000008000201D2D0008A5030008A70300089C
:10001000A9030008AB030008AD03000800000000BE
:10002000000000000000000000000000512A00084D
:10003000AF03000800000000F12A0008B103000827
:100040006D2D00086D2D00086D2D00086D2D000828
:100050006D2D00086D2D00086D2D00086D2D000818
:100060006D2D00086D2D00086D2D00086D2D000808
:100070006D2D00086D2D00086D2D00086D2D0008F8
:100080006D2D0008000000006D2D00086D2D00088A
:100090006D2D00086D2D00086D2D00086D2D0008D8
:1000A0006D2D00086D2D00086D2D00086D2D0008C8
:1000B0006D2D00086D2D00086D2D00086D2D0008B8
:1000C0006D2D00086D2D00086D2D00086D2D0008A8
:1000D0006D2D00086D2D00086D2D00086D2D000898
:1000E000C70300086D2D00086D2D00086D2D000858
:1000F0006D2D00086D2D00086D2D0008000000001A
:10010000000000006D2D0008000000006D2D0008AB
:100110006D2D0008000000006D2D00086D2D0008F9
:100120006D2D00086D2D00086D2D00086D2D000847
:100130006D2D000800000000000000006D2D00087B
:100140006D2D00086D2D000800000000000000006B
:10015000000000000000000000000000000000009F
:100160000000000000000000000000006D2D0008ED
:100170006D2D0008000000000000000000000000DD
:10018000000000006D2D00080000000000000000CD
:10019000000000000000000000000000000000005F
:1001A00000000000000000006D2D00086D2D00080B
:1001B0006D2D00086D2D00086D2D00080000000059
:1001C000000000006D2D000800000000000000008D
:0801D0006D2D00086D2D0008E3
:1001E0000348044B834202D0034B03B118477047C6
:1001F0001000002010000020000000000548064B01
:100200001B1AD90F01EBA301491002D0034B03B114
:100210001847704710000020100000200000000068
:1002200010B5064C237843B9FFF7DAFF044B13B13E
:100230000448AFF300800123237010BD100000209C
:1002400000000000E42D000808B5054B1BB105496E
:100250000548AFF30080BDE80840FFF7CFBF00BFFF
:100260000000000014000020E42D000830B587B025
:1002700001A9002401944C608C60CC600C610D4B92
:10028000DA6C42F00102DA64DB6C03F001030093E4
:10029000009B03250195012302934FF0904000F04D
:1002A000EBFC224629464FF0904000F0CFFD07B00E
:1002B00030BD00BF0010024008B501214FF0904052
:1002C00000F0C9FD4FF47A7002F020FAF5E708B5A6
:1002D00002214FF0904000F0BEFD4FF4FA7002F0A2
:1002E00015FAF5E772B6FEE710B594B006AC382201
:1002F0000021204602F03BFD002001900290039077
:100300000490059000F0C4FD022306934FF4807220
:10031000099240220A920D930E9304220F925522C5
:100320001092119312931393204600F0F3F878B9CA
:100330000F23019303230293002303930493059354
:1003400004210DEB010000F09BFB18B914B010BDA7
:10035000FFF7C8FFFFF7C6FF08B500F08DF8FFF7FD
:10036000C3FFFFF783FF02F049F9084A002108485C
:1003700002F072F9074B1860074A0021074802F0A3
:100380006BF9074B186002F04BF9FEE7502E00089E
:10039000B9020008300000202C2E0008CF0200080F
:1003A0002C000020FEE7FEE7FEE7FEE7FEE77047D1
:1003B00008B500F071F801F09FFE012800D108BDDA
:1003C00002F0C8FBFBE708B5002000F023F808BDE9
:1003D00000B583B00E4B1A6E42F001021A661A6E17
:1003E00002F001020092009A9A6D42F080529A65E2
:1003F0009B6D03F080530193019B00220F216FF04E
:10040000010000F019FE00F0C9FD03B05DF804FB27
:100410000010024008B5034B03EBC00000F024FDC0
:1004200008BD00BF34000020104B1B680BB9012031
:10043000704710B504464FF47A70B0FBF3F30C4AE2
:100440001068B0FBF3F000F007FE68B90F2C01D97B
:1004500001200AE0002221464FF0FF3000F0ECFDC1
:10046000044B1C60002000E0012010BD00000020B3
:10047000080000200400002010B5032000F0CAFD91
:100480000F20FFF7D1FF10B10124204610BD044614
:10049000FFF79EFFF9E70000034A13680349096864
:1004A0000B441360704700BF3C0000200000002098
:1004B000014B1868704700BF3C000020124BDA68FF
:1004C00002F00302DB68C3F303130133032A11D0E4
:1004D0000E48B0FBF3F00C4BDB68C3F3062303FBC1
:1004E00000F0094BDB68C3F3416301335B00B0FBF1
:1004F000F3F070470648B0FBF3F0034BDB68C3F33F
:10050000062303FB00F0ECE7001002400024F40097
:1005100000366E01002800F04F8270B582B00446AC
:10052000036813F0010F37D0A44A936803F00C035B
:10053000D26802F003020C2B23D0082B23D063686F
:10054000B3F5803F4ED0B3F5A02F51D09B4B1A6826
:1005500022F480321A601A6822F480221A606368DA
:10056000002B52D0FFF7A4FF0546944B1B6813F4F1
:10057000003F11D1FFF79CFF401B6428F5D90320F1
:1005800023E2032AD9D18D4B1B6813F4003F03D01B
:100590006368002B00F01282236813F0020F5DD015
:1005A000864A936803F00C03D26802F003020C2B16
:1005B0003AD0042B3AD0E368002B75D07F4A1368F9
:1005C00043F480731360FFF773FF05467B4B1B6892
:1005D00013F4806F5FD1FFF76BFF401B0228F5D942
:1005E0000320F2E1754A136843F480331360B6E7E1
:1005F00003F18043A3F53C331A6842F480221A6069
:100600001A6842F480321A60A9E7FFF751FF0546E5
:100610006A4B1B6813F4003FBED0FFF749FF401B35
:100620006428F5D90320D0E1022AC2D1634B1B68AC
:1006300013F4806F03D0E368002B00F0C1815F4AA0
:10064000536823F0FE43216943EA016353605C4B26
:100650001868FFF7E9FE002840F0B481236813F022
:10066000080F4CD063699BB3544AD2F8943043F0DE
:100670000103C2F89430FFF71BFF05464F4BD3F838
:10068000943013F0020F3AD1FFF712FF401B0228FB
:10069000F4D9032099E1494A536823F0FE432169C4
:1006A00043EA01635360D9E7444A136823F4807333
:1006B0001360FFF7FDFE0546404B1B6813F4806F87
:1006C000CCD0FFF7F5FE401B0228F5D903207CE1D2
:1006D0003A4AD2F8943023F00103C2F89430FFF77D
:1006E000E7FE0546354BD3F8943013F0020F06D0E1
:1006F000FFF7DEFE401B0228F4D9032065E12368E2
:1007000013F0040F00F081802C4B9B6D13F0805F81
:1007100036D12A4B9A6D42F080529A659B6D03F058
:1007200080530193019B0125264B1B6813F4807FA6
:1007300028D0A368012B39D0052B45D01F4BD3F807
:10074000902022F00102C3F89020D3F8902022F0EC
:100750000402C3F89020A368002B43D0FFF7A8FE43
:100760000646164BD3F8903013F0020F4CD1FFF72A
:100770009FFE801B41F288339842F2D9032024E186
:100780000025D1E70F4A136843F480731360FFF725
:100790008FFE06460B4B1B6813F4807FC9D1FFF711
:1007A00087FE801B0228F5D903200EE1034AD2F808
:1007B000903043F00103C2F89030CCE700100240C3
:1007C0000400002000700040884BD3F8902042F0D5
:1007D0000402C3F89020D3F8902042F00102C3F83D
:1007E0009020B8E7FFF764FE0646804BD3F89030C0
:1007F00013F0020F08D0FFF75BFE801B41F2883335
:100800009842F2D90320E0E0E5B9236813F0200F05
:1008100035D0A369E3B1754AD2F8983043F00103AB
:10082000C2F89830FFF744FE0546704BD3F8983075
:1008300013F0020F23D1FFF73BFE401B0228F4D92F
:100840000320C2E0694A936D23F080539365DCE78F
:10085000664AD2F8983023F00103C2F89830FFF7C7
:1008600027FE0546614BD3F8983013F0020F06D0EF
:10087000FFF71EFE401B0228F4D90320A5E0E36920
:10088000002B00F0A180594A926802F00C020C2A59
:1008900064D0022B13D0554A136823F08073136081
:1008A000FFF706FE0446514B1B6813F0007F4ED045
:1008B000FFF7FEFD001B0228F5D9032085E04B4A17
:1008C000136823F080731360FFF7F2FD0546474B72
:1008D0001B6813F0007F06D0FFF7EAFD401B0228DB
:1008E000F5D9032071E0414AD36841491940236A90
:1008F000606A013843EA0013A06A43EA0023206BD0
:100900004008013843EA4053606B4008013843EA2D
:100910004063E06A43EAC0631943D160136843F05F
:1009200080731360D36843F08073D360FFF7C0FD1A
:1009300004462E4B1B6813F0007F06D1FFF7B8FD6D
:10094000001B0228F5D903203FE000203DE0274AA4
:10095000D168284B0B40D360002036E0012B36D005
:10096000224BDB6803F00301226A914231D103F08C
:10097000F002616A0139B2EB011F2CD103F4FE428F
:10098000A16AB2EB012F28D103F07842E16AB2EB01
:10099000C16F24D103F4C001226B5208013AB1EBBC
:1009A000425F1ED103F0C063626B5208013AB3EBA1
:1009B000426F18D1002008E001207047012004E0B8
:1009C000012002E0012000E0002002B070BD012003
:1009D000FBE70120F9E70120F7E70120F5E7012017
:1009E000F3E70120F1E70120EFE700BF001002402C
:1009F0000C809F01FCFFEEFE1E4B9B6803F00C0376
:100A0000042B33D01B4B9B6803F00C03082B2FD017
:100A1000184B9B6803F00C030C2B01D0002070478F
:100A2000144BDA6802F00302DB68C3F303130133EB
:100A3000032A11D01048B0FBF3F00E4BDB68C3F370
:100A4000062303FB00F00B4BDB68C3F34163013368
:100A50005B00B0FBF3F070470848B0FBF3F0054BC8
:100A6000DB68C3F3062303FB00F0ECE702487047A2
:100A700002487047001002400024F40000366E0166
:100A8000002800F0E680F8B50C460546744B1B685C
:100A900003F00F038B420BD2714A136823F00F034C
:100AA0000B431360136803F00F038B4240F0D380B5
:100AB0002E6816F001065FD06B68032B2FD0022B37
:100AC0004DD0684B1B6813F4806F00F0C680FFF7B1
:100AD00093FF654B98424DD9624A936823F0F00327
:100AE00043F08003936080265E4A936823F00303FB
:100AF00069680B439360FFF7DBFC0746594B9B6823
:100B000003F00C036A68B3EB820F35D0FFF7D0FC1B
:100B1000C01B41F288339842F0D9032078E0514B52
:100B20001B6813F0007F01D1012071E0FFF7C6FCC4
:100B30004D4B98421AD94B4B9B6813F0F00F05D0E0
:100B40002E6816F00206CFD0AB688BB9454A936881
:100B500023F0F00343F0800393608026C4E7414B09
:100B60001B6813F4003FB2D1012051E00026BBE71F
:100B70000026B9E70026B7E72B6813F0020F48D02C
:100B800013F0040F04D0374A936843F4E063936092
:100B90002B6813F0080F06D0324A936823F47C5375
:100BA00043F4E06393602F4A936823F0F003A9684D
:100BB0000B4393602A4B1B6803F00F03A34230D80A
:100BC0002B6813F0040F06D0264A936823F4E063E1
:100BD000E9680B4393602B6813F0080F07D0214A94
:100BE000936823F46053296943EAC1039360FFF7D4
:100BF00003FF1C4B9B68C3F303131C4AD35C03F035
:100C00001F03D8401A4B18601A4B1868FFF70CFCEA
:100C1000F8BD802ECED1134A936823F0F003936081
:100C2000C8E70F4A136823F00F0323431360FFF74D
:100C30003FFC06460A4B1B6803F00F03A342BFD0DC
:100C4000FFF736FC801B41F288339842F2D903202B
:100C5000DEE7012070470120DAE70120D8E700BF76
:100C6000002002400010024000B4C404742E0008AA
:100C70000800002004000020F0B583B0002362E0EB
:100C800085685E000324B44025EA0405CC68B440BE
:100C90002C438460456825EA0C054C68C4F30014B5
:100CA0009C402C4344605FE0DD08083550F8254047
:100CB00003F0070C4FEA8C0C4FF00F0E0EFA0CFEEF
:100CC00024EA0E0E0C6904FA0CF444EA0E0440F80F
:100CD000254060E0052400E0002404FA0EF42C43D3
:100CE0000CF1020C554D45F82C40554CA568D443E9
:100CF00025EA02064F6817F4801F01D042EA050674
:100D00004F4DAE60ED6804EA05064F6817F4001F0A
:100D100001D042EA05064A4DEE606D6804EA050618
:100D20004F6817F4003F01D042EA0506444D6E605B
:100D30002D682C404E6816F4803F01D042EA05042D
:100D40003F4A146001330A6832FA03F474D04FF05A
:100D5000010C0CFA03FC1CEA0202F3D04C6804F00C
:100D60000304013C012C8BD94C6804F00304032CD0
:100D70000CD0C4685D004FF0030C0CFA05FC24EAAB
:100D80000C0C8C68AC4044EA0C04C4604C6804F061
:100D90000304022C88D004684FEA430E4FF0030C82
:100DA0000CFA0EFC24EA0C0C4C6804F0030404FA60
:100DB0000EF444EA0C0404604C6814F4403FC1D0C3
:100DC000204C256E45F001052566246E04F00104D3
:100DD0000194019C4FEA930C0CF10205174C54F856
:100DE000255003F0030E4FEA8E0E0F2404FA0EF482
:100DF00025EA0405B0F1904F3FF46EAF124CA042CB
:100E000012D004F58064A04210D004F58064A042A2
:100E10000ED004F58064A0420CD004F58064A0429A
:100E20003FF458AF062458E7012456E7022454E75C
:100E3000032452E7042450E703B0F0BD0000014052
:100E40000004014000100240000400480AB1816122
:100E5000704781627047436901EA030221EA030196
:100E600041EA02418161704710B50368C3F3004253
:100E700003F01F03012199405301044A9C580C427E
:100E800003D09950436803B1984710BD1404014042
:100E9000002836D13E4B1B6803F4C063B3F5806F66
:100EA00008D03B4AD2F8803023F48073C2F88030F7
:100EB00000207047364AD2F8803023F48073C2F89D
:100EC0008030136823F4C06343F400731360314B24
:100ED0001B68322202FB03F32F4AA2FB03239B0C65
:100EE000013300E0013B2A4A526912F4806F01D0BD
:100EF000002BF7D1264B5B6913F4806F44D100209F
:100F00007047B0F5007F08D0214A136823F4C0630E
:100F100043F480631360002070471D4B1B6803F48B
:100F2000C063B3F5806F08D0194AD2F8803043F41B
:100F30008073C2F8803000207047154AD2F88030A4
:100F400043F48073C2F88030136823F4C06343F421
:100F5000007313600F4B1B68322202FB03F30E4A2F
:100F6000A2FB03239B0C013300E0013B084A5269BA
:100F700012F4806F01D0002BF7D1054B5B6913F49D
:100F8000806F03D100207047032070470320704713
:100F9000007000400800002083DE1B43024A936873
:100FA00043F480439360704700700040002808DBE2
:100FB0000901C9B200F1604000F5614080F80013FA
:100FC000704700F00F000901C9B2014B1954704776
:100FD00014ED00E000B500F00700C0F1070CBCF113
:100FE000040F28BF4FF0040C031D062B0FD9C31E9E
:100FF0004FF0FF3E0EFA0CF021EA000199400EFA84
:1010000003FE22EA0E0241EA02005DF804FB00231F
:10101000EEE70000074AD36823F4E0631B041B0CCF
:10102000000200F4E060034343F0BF6343F4003385
:10103000D360704700ED00E010B50446054BD8685A
:10104000C0F30220FFF7C6FF01462046FFF7AEFFC0
:1010500010BD00BF00ED00E00138B0F1807F0BD281
:101060004FF0E0235861054AF02182F82310002058
:10107000986107221A6170470120704700ED00E077
:10108000034AD2F8883043F47003C2F888307047BE
:1010900000ED00E000F1080343604FF0FF32826092
:1010A000C36003610023036070470023036170473E
:1010B00043684B609A688A60516099600861036870
:1010C00001330360704730B40D68B5F1FF3F11D0B4
:1010D00000F108031C465B681A68AA42FAD96368E3
:1010E0004B6099608C606160086103680133036044
:1010F00030BC70470469F2E70369416882688A601E
:10110000416851605A68824206D0002202611A6822
:10111000013A1A601868704782685A60F5E710B59E
:10112000044601F0A7FCA26BE36B9A4204D00024B2
:1011300001F0C2FC204610BD0124F9E710B50446B9
:1011400001F098FCA36B23B9012401F0B5FC204603
:1011500010BD0024F9E770B504461546866B026C95
:101160005AB903681BB100200136A66370BD8068C0
:1011700000F0D2FF0023A360F6E76DB9406801F0EC
:1011800023FE6368226C13446360A268934219D300
:10119000236863602846E7E7C06801F015FEE3684E
:1011A000226C51429B1AE3602268934202D2A368E8
:1011B0000B44E360022D01D00020D5E726B1013EAB
:1011C0000020D1E72846CFE70020CDE70346026C98
:1011D0006AB110B50846D9681144D9609C68A1422B
:1011E00001D31968D960D96801F0EEFD10BD7047D0
:1011F00038B5054601F03EFC95F8454064B201E083
:10120000013C64B2002C0ADD6B6A43B105F1240095
:1012100000F0D6FE0028F3D000F068FFF0E7FF23CF
:1012200085F8453001F048FC01F024FC95F8444075
:1012300064B201E0013C64B2002C0ADD2B6943B1C9
:1012400005F1100000F0BCFE0028F3D000F04EFFC6
:10125000F0E7FF2385F8443001F02EFC38BD38B5A7
:10126000E0B10D46044601F005FC2368E26B216CF9
:1012700001FB0230A0600020A0636360013A02FB22
:101280000133E360FF2384F8443084F84530FDB92E
:10129000236963B901F010FC012038BD4FF0500301
:1012A00083F31188BFF36F8FBFF34F8FFEE704F115
:1012B000100000F085FE0028ECD04FF0E0234FF046
:1012C0008052C3F8042DBFF34F8FBFF36F8FE1E758
:1012D00004F11000FFF7DEFE04F12400FFF7DAFE50
:1012E000D8E738B51D46049C0B4649B92460E06335
:1012F000236401212046FFF7B2FF84F84C5038BD2B
:101300002260F4E740B94FF0500383F31188BFF334
:101310006F8FBFF34F8FFEE710B584B01C46844635
:1013200053B192B189B94FF0500383F31188BFF3E1
:101330006F8FBFF34F8FFEE74FF0500383F3118899
:10134000BFF36F8FBFF34F8FFEE76AB15023039354
:10135000039B502B13D04FF0500383F31188BFF33E
:101360006F8FBFF34F8FFEE70029EFD04FF0500390
:1013700083F31188BFF36F8FBFF34F8FFEE7039B9B
:10138000012384F8463000949DF818306046FFF73A
:10139000A8FF204604B010BDF0B585B0019288B119
:1013A0000F461D460446B1B1022D20D1E36B012B3F
:1013B0001DD04FF0500383F31188BFF36F8FBFF33D
:1013C0004F8FFEE74FF0500383F31188BFF36F8F09
:1013D000BFF34F8FFEE7036C002BE5D04FF05003B7
:1013E00083F31188BFF36F8FBFF34F8FFEE700F0D9
:1013F00083FE064658B9019B002B48D04FF050039E
:1014000083F31188BFF36F8FBFF34F8FFEE7002682
:101410003DE02A4639462046FFF79DFE636A7BB9C8
:1014200048B14FF0E0234FF08052C3F8042DBFF3D2
:101430004F8FBFF36F8F01F03FFB012005B0F0BD70
:1014400004F1240000F0BCFD0028F4D04FF0E023AC
:101450004FF08052C3F8042DBFF34F8FBFF36F8F4F
:10146000E9E701F029FB0020E8E702A800F0EEFD23
:10147000012619E0002384F8443021E0002384F899
:10148000453023E02046FFF7B3FE00F077FC01F083
:10149000F1FAA26BE36B9A42BBD3022DB9D0019B48
:1014A000002BDED0002EE0D001F006FB00F0CCFBDC
:1014B00001F0E0FA94F8442052B2B2F1FF3FD9D0E3
:1014C00094F8452052B2B2F1FF3FD7D001F0F4FAC0
:1014D00001A902A800F0C6FDD8B92046FFF71FFEFB
:1014E0000028CFD0019904F1100000F035FD20460E
:1014F000FFF77EFE00F042FC0028C8D14FF0E02349
:101500004FF08052C3F8042DBFF34F8FBFF36F8F9E
:10151000BDE72046FFF76CFE00F030FC00208DE7B1
:101520002DE9F84390B10F4616461C460546B1B169
:10153000022C20D1EB6B012B1DD04FF0500383F315
:101540001188BFF36F8FBFF34F8FFEE74FF050034B
:1015500083F31188BFF36F8FBFF34F8FFEE7036CE8
:10156000002BE5D04FF0500383F31188BFF36F8F4A
:10157000BFF34F8FFEE701F0A3FBEFF311884FF0AD
:10158000500383F31188BFF36F8FBFF34F8FAA6BA4
:10159000EB6B9A4206D3022C04D0002088F311880A
:1015A000BDE8F88395F845904FFA89F9AB6B224670
:1015B00039462846FFF7CFFDB9F1FF3F06D009F1C4
:1015C00001035BB285F845300120E7E76B6A0BB990
:1015D0000120E3E705F1240000F0F2FC18B126B188
:1015E00001203060DAE70120D8E70120D6E7F0B526
:1015F00085B0019290B10F460446C1B100F07CFD68
:10160000064600BB019B002B5ED04FF0500383F3D6
:101610001188BFF36F8FBFF34F8FFEE74FF050037A
:1016200083F31188BFF36F8FBFF34F8FFEE7036C17
:10163000002BE3D04FF0500383F31188BFF36F8F7B
:10164000BFF34F8FFEE700263EE039462046FFF706
:10165000BDFD013DA563236923B901F02DFA0120E9
:1016600005B0F0BD04F1100000F0AAFC0028F4D091
:101670004FF0E0234FF08052C3F8042DBFF34F8F9B
:10168000BFF36F8FE9E701F017FA0020E8E702A83F
:1016900000F0DCFC012621E0002384F8443029E03E
:1016A000002384F845302BE02046FFF7A1FD00F031
:1016B00065FB09E02046FFF79BFD00F05FFB20463D
:1016C000FFF73CFD00283FD101F0D4F9A56B002DB8
:1016D000BBD1019B002BD6D0002ED8D001F0ECF965
:1016E00000F0B2FA01F0C6F994F844305BB2B3F1FD
:1016F000FF3FD1D094F845305BB2B3F1FF3FCFD07C
:1017000001F0DAF901A902A800F0ACFC0028D1D15F
:101710002046FFF713FD0028C6D0019904F12400EC
:1017200000F01AFC2046FFF763FD00F027FB0028BD
:10173000CAD14FF0E0234FF08052C3F8042DBFF31D
:101740004F8FBFF36F8FBFE7002089E70023072B80
:101750000CD8074A52F833200AB10133F7E7044A9C
:1017600042F8331002EBC30250607047704700BF6D
:101770004000002070B504460D46164601F07AF987
:1017800094F844305BB2B3F1FF3F0DD094F845308C
:101790005BB2B3F1FF3F0BD001F08EF9A36B5BB1ED
:1017A0002046FFF725FD70BD002384F84430EDE7A7
:1017B000002384F84530EFE73246294604F124003F
:1017C00000F0E2FBECE70000084B1B681B6823B944
:1017D000074B4FF0FF321A607047044B1B68DB6801
:1017E000DB685A68024B1A60704700BFF0000020A7
:1017F000880000202DE9F04780460D46174699469F
:10180000089EDDF824A00A9C9200A521206B01F01F
:10181000AEFA236B07F18042013A03EB820727F00F
:101820000707A5B34FF0000CBCF10F0F09D815F84E
:101830000C3004EB0C0282F8343013B10CF1010CC3
:10184000F2E7002384F84330372E00D93726E662CA
:10185000E66400252565201DFFF727FC04F118002C
:10186000FFF723FC2461C6F13806A6616462656552
:1018700084F858504A464146384601F0CFF8206077
:10188000BAF1000F01D0CAF80040BDE8F08700238C
:1018900084F83430D8E7000038B5002407E004EBC2
:1018A000840293000E481844FFF7F4FB0134372CF0
:1018B000F5D90C4D2846FFF7EDFB0B4C2046FFF702
:1018C000E9FB0A48FFF7E6FB0948FFF7E3FB094895
:1018D000FFF7E0FB084B1D60084B1C6038BD00BFE4
:1018E0001C01002008010020F4000020D800002086
:1018F000C4000020AC000020F0000020EC0000201C
:1019000010B5044601F0B6F8224A1368013313609B
:10191000214B1B685BB1214B1B686BB91E4B1B68CD
:10192000DA6AE36A9A4207D81B4B1C6004E01A4B40
:101930001C601368012B29D0194A13680133136006
:101940006364E06A174B1B68984201D9154B186015
:1019500000EB8000211D144B03EB8000FFF7A8FB78
:1019600001F0AAF80D4B1B687BB10B4B1B68DA6AC0
:10197000E36A9A4209D24FF0E0234FF08052C3F855
:10198000042DBFF34F8FBFF36F8F10BDFFF784FFA0
:10199000D2E700BFA80000207C0500209C000020AA
:1019A0008C000020A00000201C01002010B504467F
:1019B00090F8593063B1012B11D0022B0ED04FF0AB
:1019C000500383F31188BFF36F8FBFF34F8FFEE790
:1019D000006B00F0A7FF204600F0A4FF10BD00F050
:1019E000A1FFFBE70F4B1B68D3B110B501F042F824
:1019F0000D4BDB68DC68201DFFF77EFB0B4A13688C
:101A0000013B1360074A1368013B136001F054F86F
:101A10002046FFF7CBFF034B1B68002BE6D110BD20
:101A2000704700BFC0000020C4000020A8000020B4
:101A300008B5FFF7D7FF074B1B68012BF9D94FF00B
:101A4000E0234FF08052C3F8042DBFF34F8FBFF354
:101A50006F8FEEE71C01002070B504460D46174B52
:101A60001E68174B18680430FFF746FBB4F1FF3FC0
:101A70000DD03444124B1B685C60A64210D9114B48
:101A800018680F4B19680431FFF71DFB70BD002D5E
:101A9000EFD00B4B196804310B48FFF709FBF5E752
:101AA0000A4B1868064B19680431FFF70CFB084B0A
:101AB0001B68A342EAD9064B1C60E7E7A40000209C
:101AC0007C050020EC000020AC000020F00000208D
:101AD0008800002030B587B00B9C7CB10C9DB5B15F
:101AE0005C250495049D5C2D1AD04FF0500383F3C0
:101AF0001188BFF36F8FBFF34F8FFEE74FF0500396
:101B000083F31188BFF36F8FBFF34F8FFEE74FF062
:101B1000500383F31188BFF36F8FBFF34F8FFEE73E
:101B2000049D0C9D2C63022485F8594000240394E5
:101B3000029505AC01940A9C0094FFF75BFE0C989B
:101B4000FFF7DEFE059807B030BD2DE9F04385B004
:101B50000746884614461E46900000F061FE08B312
:101B600081465C2000F05CFE0546A8B1C0F83090CC
:101B7000002380F85930039302900D9B01930C9B36
:101B800000933346224641463846FFF733FE284647
:101B9000FFF7B6FE012007E0484600F0C3FE4FF015
:101BA000FF3001E04FF0FF3005B0BDE8F0830000EA
:101BB00010B588B000240594069407AA06A905A8C4
:101BC00000F0B2FD059B0293069B0193009423460F
:101BD000079A17491748FFF77DFF174B1860C0B1E8
:101BE00000F04EFB012815D14FF0500383F311880C
:101BF000BFF36F8FBFF34F8F104B4FF0FF321A6060
:101C00000F4B01221A600F4B00221A6000F0CCFF2C
:101C100003E00020B0F1FF3F01D008B010BD4FF04D
:101C2000500383F31188BFF36F8FBFF34F8FFEE72D
:101C3000142E0008311A00088400002088000020BB
:101C40009C000020A4000020024A136801331360A6
:101C5000704700BF80000020014B1868704700BF2C
:101C6000A4000020F8B53A4B1B68002B69D1394B12
:101C70001D6801351D60C5B9374B1B681B6843B132
:101C80004FF0500383F31188BFF36F8FBFF34F8F73
:101C9000FEE7314A1168314B186810601960304A0C
:101CA000136801331360FFF78FFD2E4B1B68AB42A7
:101CB0003DD900272C4B1B68DB6A03EB83039A009A
:101CC0002A4B9B58012B00D90127294B1B68002B5D
:101CD0003CD001273AE001271F4B1B681B6843B328
:101CE0001D4B1B68DB68DC6863689D4226D3261D9C
:101CF0003046FFF701FAA36A1BB104F11800FFF7A1
:101D0000FBF9E36A1B4A1268934201D9194A13602E
:101D100003EB83039A00314614481044FFF7C8F9D7
:101D2000E26A114B1B68DB6A9A42D4D2D4E70027DF
:101D3000D2E70C4B4FF0FF321A60BBE7094A136041
:101D4000B8E70D4A13680133136000273846F8BD21
:101D500080000020A4000020F0000020EC00002003
:101D600090000020880000207C0500201C0100203D
:101D700094000020A00000209800002038B5354BCA
:101D80001B6843B94FF0500383F31188BFF36F8F83
:101D9000BFF34F8FFEE700F06DFE2E4B1A68013A3D
:101DA0001A601B68002B4FD12B4B1B680BB900240A
:101DB0004BE00024294B1B681BB3284BDB68DC6815
:101DC00004F11800FFF798F9251D2846FFF794F94C
:101DD000E06A234B1B68984201D9214B186000EB45
:101DE000800029461F4B03EB8000FFF761F9E26A90
:101DF0001D4B1B68DB6A9A42DCD31C4B01221A6024
:101E0000D8E70CB1FFF7E0FC194B1C6884B9174BFD
:101E10001C68D4B14FF0E0234FF08052C3F8042D7A
:101E2000BFF34F8FBFF36F8F01240EE0013C07D04B
:101E3000FFF718FF0028F9D00C4B01221A60F5E7D4
:101E40000B4B00221A60E2E7002400F035FE20462A
:101E500038BD00BF80000020A8000020D80000206E
:101E6000A00000201C0100207C0500209400002020
:101E70009800002010B5A8B10446104B1B6843B170
:101E80004FF0500383F31188BFF36F8FBFF34F8F71
:101E9000FEE7FFF7D9FE00212046FFF7DDFDFFF743
:101EA0006DFF48B94FF0E0234FF08052C3F8042D86
:101EB000BFF34F8FBFF36F8F10BD00BF80000020B6
:101EC000204B1B681BB1204B01221A6070471E4B30
:101ED00000221A601D4B1B6803EB83018A001C491A
:101EE0008A585AB90BB1013BF6E74FF0500383F320
:101EF0001188BFF36F8FBFF34F8FFEE7084603EBE8
:101F000083018A00024451684968516003EB830CE5
:101F10004FEA8C020832024491420BD003EB830259
:101F200091000B4A0A445268D1680A4A1160074A74
:101F300013607047486862469100054A0A44506041
:101F4000ECE700BF8000002094000020A0000020EB
:101F50001C0100207C05002058B110B50C46094A30
:101F600011681831FFF7AFF801212046FFF774FD23
:101F700010BD4FF0500383F31188BFF36F8FBFF391
:101F80004F8FFEE77C05002038B570B10D46144632
:101F90000A4A11681831FFF78BF80CB14FF0FF3582
:101FA00021462846FFF758FD38BD4FF0500383F314
:101FB0001188BFF36F8FBFF34F8FFEE77C050020C2
:101FC00038B5C368DC6824B304F118052846FFF768
:101FD00093F8184B1B682BBB251D2846FFF78CF880
:101FE000E06A154B1B68984201D9134B186000EB4F
:101FF00080002946114B03EB8000FFF759F8E26A95
:102000000F4B1B68DB6A9A4211D901200D4B1860F7
:1020100038BD4FF0500383F31188BFF36F8FBFF3C8
:102020004F8FFEE729460848FFF742F8E7E7002010
:10203000EEE700BF80000020A00000201C0100206F
:102040007C05002094000020D8000020034B1B6872
:102050000360034B1B684360704700BF9000002083
:10206000A4000020E0B170B50C46054609B300F0AD
:1020700001FD1C4B19686B68C81A2268B2F1FF3F5A
:1020800028D0DFF864C0DCF800C02E68664501D0B7
:102090008B4224D9824215D80023236001241AE000
:1020A0004FF0500383F31188BFF36F8FBFF34F8F4F
:1020B000FEE74FF0500383F31188BFF36F8FBFF338
:1020C0004F8FFEE75B1A134423602846FFF7BEFFDD
:1020D000002400E0002400F0EFFC204670BD012445
:1020E000F9E700BFA400002090000020014B01226E
:1020F0001A60704794000020054B1B6833B1054BF4
:102100001B680BB100207047022070470120704708
:102110009C0000208000002000283BD038B50446F9
:102120001E4B1B68834208D04FF0500383F3118885
:10213000BFF36F8FBFF34F8FFEE7036D43B94FF0CF
:10214000500383F31188BFF36F8FBFF34F8FFEE708
:10215000013B0365C16AC26C91421DD00BB10020E6
:1021600038BD051D2846FEF7C7FFE06CE062C0F1F0
:102170003803A3610A4B1B68984201D9084B1860C9
:1021800000EB80002946074B03EB8000FEF790FF31
:102190000120E5E7002070470020E1E77C050020F2
:1021A000A00000201C010020064B1A6813682BB900
:1021B0000123036023B9D368186870470023F8E748
:1021C000002070478006002008B541600061914200
:1021D0000CD8D21A83699A4201D3012008BD011D8F
:1021E000094B1868FEF76FFF0020F7E79A4201D20B
:1021F000994206D2011D054B1868FEF764FF0020C6
:10220000ECE70120EAE700BF7C0600208006002002
:1022100030B583B000F02EFC114B1B681BB100F0F1
:102220004BFC03B030BD0F4D2846FEF733FF0E4C7C
:102230002046FEF72FFF0D4B1D600D4B1C60002349
:1022400000930C4B0C4A10210A20FFF75BF8044B5B
:1022500018600028E3D00949FFF778FADFE700BFEC
:1022600078060020980600208406002080060020C2
:102270007C06002080050020D00500201C2E0008D0
:1022800010B588B0FFF7C4FF124B1B68CBB1002418
:102290000594069407AA06A905A800F051FA059B23
:1022A0000293069B0193022300932346079A0A494F
:1022B0000A48FFF70FFC0A4B186010B1012008B064
:1022C00010BD4FF0500383F31188BFF36F8FBFF33E
:1022D0004F8FFEE778060020242E0008E525000831
:1022E00074060020B8B19C4603461848006858B3ED
:1022F00000B585B000910192029305291CDCFFF71F
:10230000FBFE022810D000231A4669460F480068D9
:10231000FFF742F815E04FF0500383F31188BFF345
:102320006F8FBFF34F8FFEE70023069A6946074879
:102330000068FFF731F804E0002362466946FFF7C2
:10234000EFF805B05DF804FB002070477806002028
:1023500070B582B01B4B1B681A6862B3DB681E68DD
:10236000DC68251D2846FEF7C7FE236A20469847ED
:1023700094F8283013F0040FECD0A36933449E4244
:1023800007D26360246129460E4B1868FEF79BFE56
:10239000E0E7002100910B4632462046FFF7A2FFFE
:1023A0000028D7D14FF0500383F31188BFF36F8F0C
:1023B000BFF34F8FFEE7044A1068024908601360BC
:1023C00002B070BD800600207C06002038B50546AE
:1023D000FFF742FC0446074B1B68834205D80023E5
:1023E0002B60044B1C60204638BDFFF7B1FF012372
:1023F0002B60F6E77006002070B582B006460D46E9
:1024000017490968C968CC68201DFEF775FE94F865
:1024100028C01CF0040F08D12CF0010C84F828C04F
:10242000236A2046984702B070BDA16933462A4608
:1024300031442046FFF7C8FE0028F1D0002100916A
:102440000B4632462046FFF74DFF0028E8D14FF0FB
:10245000500383F31188BFF36F8FBFF34F8FFEE7F5
:102460008006002070B582B006460C46FFF7ECFBF4
:1024700001A8FFF7ABFF019B33BB0546E4B9B042AF
:1024800013D22246711B124B1868FFF773F9FFF73E
:1024900075FCD8B94FF0E0234FF08052C3F8042DFB
:1024A000BFF34F8FBFF36F8F10E0FFF767FC294634
:1024B0003046FFF7A1FF09E0064A126812680AB920
:1024C0000124DEE71C46DCE7FFF758FC02B070BDD4
:1024D000780600207C06002010B588B002E0049B3E
:1024E000002B0FDA002204A93D4B1868FFF77FF894
:1024F000002872D0049B002BF1DA07990698059BFF
:102500009847ECE7069C636913B1201DFEF7F4FDC4
:1025100003A8FFF75BFF0246049B092BE2D8DFE824
:1025200003F00505052F364E05052F3694F82830A3
:1025300043F0010384F82830059BA1691944204623
:10254000FFF742FE0028CDD0236A2046984794F832
:10255000283013F0040FC5D0A269002100910B466A
:10256000059802442046FFF7BDFE0028BAD14FF07F
:10257000500383F31188BFF36F8FBFF34F8FFEE7D4
:1025800094F8283023F0010384F82830AAE794F85F
:10259000283043F0010384F828300599A16129B15E
:1025A000034601442046FFF70FFE9BE74FF0500320
:1025B00083F31188BFF36F8FBFF34F8FFEE794F85B
:1025C000283013F0020F04D023F0010384F82830E0
:1025D00088E7204600F0A6F984E708B010BD00BFE8
:1025E0007806002000B583B001A8FFF7DDFD019952
:1025F000FFF738FFFFF770FFF6E70000EFF3058302
:102600002BB9064B186828B901221A6070476FF081
:10261000050070474FF0FF30704700BF640D002089
:10262000EFF3058373B90A4B1B68012B0DD110B56D
:102630000024084BDC77064B02221A60FFF7B8FA39
:10264000204610BD6FF0050070474FF0FF30704717
:10265000640D002000ED00E0F0B587B00024059483
:10266000EFF3058404BBF8B1002A34D015689369F0
:102670002BB11E46013B372B02D9002015E018264E
:10268000536813F0010F3FD1546984B14FEA940CA1
:1026900093682BB1D7685B2F02D9176907B184B94A
:1026A00043B14FF0FF330BB3059807B0F0BD4FF0C7
:1026B000800CEDE7D368A3B91369ABB14FF0FF33DA
:1026C000F1E70293019700960B4662462946FFF711
:1026D00001FA0590E8E71546002318264FF0800C14
:1026E000E1E74FF0FF33DEE70023DCE705AB0193C2
:1026F00000960B461FFA8CF22946FFF726FA0128AE
:10270000D2D000230593CFE70020CEE708B5EFF342
:10271000058333B908B9002008BDFFF7ABFB0020E3
:10272000FAE76FF00500F7E7034B0360034B0B601C
:1027300080231360704700BF080D0020080B0020A5
:10274000034B0360034B0B604FF4807313607047BF
:10275000AC0A0020AC060020124A12F0070F1ED06F
:10276000D11D21F00701C1F5406313440A460E480C
:102770000260002141601344083B23F007030B482B
:10278000036059601960991A51601360084B196011
:10279000084B1960084B4FF000421A6070474FF425
:1027A0004063E4E7880D0020800D00207C0D0020B0
:1027B000740D0020780D0020680D0020164B1A467D
:1027C0001B688342FBD3516802EB010C844509D09E
:1027D000416800EB010C634509D00360904219D0B9
:1027E000106070474068014451601046F0E710B433
:1027F0000A4C2468A3420BD05B68194441601368FB
:102800001B680360904200D010605DF8044B704775
:102810000460F7E7704700BF800D00207C0D0020AA
:1028200038B50446FFF710FA384B1B68B3B1384B84
:102830001B681C4250D1002C50D004F1080214F047
:10284000070F02D022F007020832002A55D0314B80
:102850001B68934253D330490C6804E0FFF77CFFB8
:10286000E5E721461C466368934202D22368002BA9
:10287000F7D1264B1B68A34243D00D680835236867
:102880000B6063689B1A102B10D9A01810F0070F6B
:1028900008D04FF0500383F31188BFF36F8FBFF35D
:1028A0004F8FFEE743606260FFF788FF6268194957
:1028B0000B689B1A0B60194909688B4201D21749B2
:1028C0000B60134B1B681343636000232360144A9F
:1028D00013680133136002E0002500E00025FFF7D4
:1028E0004DFA15F0070F0ED04FF0500383F3118807
:1028F000BFF36F8FBFF34F8FFEE70025EFE7002593
:10290000EDE70025EBE7284638BD00BF7C0D002031
:10291000680D0020780D0020800D0020740D00202F
:10292000700D0020002834D038B50446A0F1080509
:1029300050F8043C174A1268134208D14FF0500374
:1029400083F31188BFF36F8FBFF34F8FFEE750F80B
:10295000081C41B14FF0500383F31188BFF36F8F10
:10296000BFF34F8FFEE723EA020340F8043CFFF772
:102970006BF954F8041C084A13680B44136028468A
:10298000FFF71CFF054A136801331360FFF7F6F9E0
:1029900038BD7047680D0020780D00206C0D0020B8
:1029A00082B0002301930D4B1B68B3F1FF3F08D0A9
:1029B0004FF0500383F31188BFF36F8FBFF34F8F36
:1029C000FEE74FF0500383F31188BFF36F8FBFF31F
:1029D0004F8F019B002BFCD002B070470C000020F1
:1029E00008480068006880F308884FF0000080F312
:1029F000148862B661B6BFF34F8FBFF36F8F00DFED
:102A000000BF000008ED00E0DFF80C00016841F4B1
:102A1000700101607047000088ED00E04FF08073A6
:102A200040F8043C21F0010140F8081C054B40F837
:102A30000C3C40F8202C6FF0020340F8243C443852
:102A4000704700BFA129000800000000000000003E
:102A5000074B19680868B0E8F04F80F30988BFF3A6
:102A60006F8F4FF0000080F311887047AFF3008044
:102A70007C0500204FF0500383F31188BFF36F8F64
:102A8000BFF34F8F0B4A136801331360012B00D043
:102A900070474FF0E023D3F8043D13F0FF0FF7D059
:102AA0004FF0500383F31188BFF36F8FBFF34F8F45
:102AB000FEE700BF0C000020094B1B6843B94FF034
:102AC000500383F31188BFF36F8FBFF34F8FFEE77F
:102AD000013B034A13600BB983F31188704700BFB1
:102AE0000C000020000000000000000000000000BA
:102AF000EFF30980BFF36F8F154B1A681EF0100FAC
:102B000008BF20ED108A20E9F04F10602DE9090080
:102B10004FF0500080F31188BFF34F8FBFF36F8FDA
:102B2000FFF7CEF94FF0000080F3118809BC196857
:102B30000868B0E8F04F1EF0100F08BFB0EC108A24
:102B400080F30988BFF36F8F704700BFAFF3008039
:102B50007C05002008B54FF0500383F31188BFF3C4
:102B60006F8FBFF34F8FFFF77DF828B14FF0E02351
:102B70004FF08052C3F8042D002383F3118808BD61
:102B80004FF0E022002313619361054B1B68054958
:102B9000A1FB03139B09013B53610723136170479A
:102BA00008000020D34D62104FF0E023D3F8002D31
:102BB0003D4B9A421CD04FF0E023D3F8002D3B4B05
:102BC0009A421ED030B583B0394B1A78D2B20192F6
:102BD000FF221A701B78DBB28DF803309DF80330AA
:102BE00003F05003334A1370334B07221A601BE083
:102BF0004FF0500383F31188BFF36F8FBFF34F8FF4
:102C0000FEE74FF0500383F31188BFF36F8FBFF3DC
:102C10004F8FFEE7284A1368013B13609DF803308D
:102C20005B00DBB28DF803309DF8033013F0800FAA
:102C3000F0D1214B1B68032B08D04FF0500383F3D6
:102C40001188BFF36F8FBFF34F8FFEE71B021A4A45
:102C5000136003F4E0631360019BDBB2144A13704A
:102C60004FF0E024D4F8203D43F47003C4F8203D35
:102C7000D4F8203D43F07043C4F8203DFFF780FFB7
:102C800000250E4B1D60FFF7BFFED4F8343F43F024
:102C90004043C4F8343FFFF7A3FEFFF711F9FFF7F5
:102CA0007FFE284603B030BD71C20F4170C20F4194
:102CB00000E400E08C190020881900200C0000209E
:102CC000EFF305830F2B0ED9114A9A5C114B1B7839
:102CD0009A4208D24FF0500383F31188BFF36F8FED
:102CE000BFF34F8FFEE74FF0E023D3F80C3D03F422
:102CF000E063094A1268934208D94FF0500383F306
:102D00001188BFF36F8FBFF34F8FFEE7704700BF8F
:102D1000F0E300E08C190020881900200D4885465A
:102D2000FEF7AEF90C480D490D4A002302E0D458D5
:102D3000C4500433C4188C42F9D30A4A0A4C002305
:102D400001E013600432A242FBD300F019F8FDF752
:102D500003FBFEE7008000200000002010000020A0
:102D60008C2E00081000002090190020FEE702447D
:102D70000346934200D1704703F8011BF9E70000B6
:102D800070B50D4B0D4D5B1B9C100026A64209D162
:102D900000F028F80A4D0B4B5B1B9C100026A64246
:102DA00005D170BD55F8043B98470136EEE755F85C
:102DB000043B98470136F2E7842E0008842E000871
:102DC000842E0008882E00080A44914200F1FF3347
:102DD00000D1704710B511F8014B03F8014F914233
:102DE000F9D110BDF8B500BFF8BC08BC9E467047CD
:0C2DF000F8B500BFF8BC08BC9E46704758
:102DFC004C45445F5461736B320000004C45445F9A
:102E0C005461736B3100000049444C4500000000D4
:102E1C00546D725100000000546D722053766300A3
:102E2C00FC2D000800000000000000000000000065
:102E3C00000000000002000018000000000000006C
:102E4C0000000000082E0008000000000000000038
:102E5C00000000000000000000020000180000004C
:102E6C000000000000000000000000000000000056
:082E7C00010203040607080926
:042E840049020008F7
:042E8800210200081B
:102E8C0001000000100000000024F400AAAAAAAA65
:0400000508002D1DA5
:00000001FF
